{
	"abi": [
		{
			"type": "constructor",
			"inputs": [
				{
					"name": "_subscriptionId",
					"type": "uint256",
					"internalType": "uint256"
				},
				{
					"name": "_coordinatorAddr",
					"type": "address",
					"internalType": "address"
				},
				{
					"name": "_keyhash",
					"type": "bytes32",
					"internalType": "bytes32"
				},
				{
					"name": "_nativePayment",
					"type": "bool",
					"internalType": "bool"
				}
			],
			"stateMutability": "nonpayable"
		},
		{
			"type": "function",
			"name": "acceptOwnership",
			"inputs": [],
			"outputs": [],
			"stateMutability": "nonpayable"
		},
		{
			"type": "function",
			"name": "addCollaborator",
			"inputs": [
				{
					"name": "_collaborator",
					"type": "address",
					"internalType": "address"
				}
			],
			"outputs": [],
			"stateMutability": "nonpayable"
		},
		{
			"type": "function",
			"name": "deleteRequest",
			"inputs": [
				{
					"name": "_requester",
					"type": "address",
					"internalType": "address"
				}
			],
			"outputs": [],
			"stateMutability": "nonpayable"
		},
		{
			"type": "function",
			"name": "deleteRequest",
			"inputs": [
				{
					"name": "_requestId",
					"type": "uint256",
					"internalType": "uint256"
				}
			],
			"outputs": [],
			"stateMutability": "nonpayable"
		},
		{
			"type": "function",
			"name": "getCallbackGasLimit",
			"inputs": [],
			"outputs": [
				{
					"name": "",
					"type": "uint32",
					"internalType": "uint32"
				}
			],
			"stateMutability": "view"
		},
		{
			"type": "function",
			"name": "getMinRollPrice",
			"inputs": [],
			"outputs": [
				{
					"name": "",
					"type": "uint256",
					"internalType": "uint256"
				}
			],
			"stateMutability": "view"
		},
		{
			"type": "function",
			"name": "getNativePayment",
			"inputs": [],
			"outputs": [
				{
					"name": "",
					"type": "bool",
					"internalType": "bool"
				}
			],
			"stateMutability": "view"
		},
		{
			"type": "function",
			"name": "getRequestIds",
			"inputs": [
				{
					"name": "_requester",
					"type": "address",
					"internalType": "address"
				}
			],
			"outputs": [
				{
					"name": "",
					"type": "uint256[]",
					"internalType": "uint256[]"
				}
			],
			"stateMutability": "view"
		},
		{
			"type": "function",
			"name": "getRequestStatus",
			"inputs": [
				{
					"name": "_requestId",
					"type": "uint256",
					"internalType": "uint256"
				}
			],
			"outputs": [
				{
					"name": "requester",
					"type": "address",
					"internalType": "address"
				},
				{
					"name": "fulfilled",
					"type": "bool",
					"internalType": "bool"
				},
				{
					"name": "randomWord",
					"type": "uint256",
					"internalType": "uint256"
				},
				{
					"name": "dice",
					"type": "uint8",
					"internalType": "uint8"
				},
				{
					"name": "paid",
					"type": "uint256",
					"internalType": "uint256"
				},
				{
					"name": "timestamp",
					"type": "uint256",
					"internalType": "uint256"
				}
			],
			"stateMutability": "view"
		},
		{
			"type": "function",
			"name": "getRequester",
			"inputs": [
				{
					"name": "_requestId",
					"type": "uint256",
					"internalType": "uint256"
				}
			],
			"outputs": [
				{
					"name": "",
					"type": "address",
					"internalType": "address"
				}
			],
			"stateMutability": "view"
		},
		{
			"type": "function",
			"name": "owner",
			"inputs": [],
			"outputs": [
				{
					"name": "",
					"type": "address",
					"internalType": "address"
				}
			],
			"stateMutability": "view"
		},
		{
			"type": "function",
			"name": "rawFulfillRandomWords",
			"inputs": [
				{
					"name": "requestId",
					"type": "uint256",
					"internalType": "uint256"
				},
				{
					"name": "randomWords",
					"type": "uint256[]",
					"internalType": "uint256[]"
				}
			],
			"outputs": [],
			"stateMutability": "nonpayable"
		},
		{
			"type": "function",
			"name": "removeCollaborator",
			"inputs": [
				{
					"name": "_collaborator",
					"type": "address",
					"internalType": "address"
				}
			],
			"outputs": [],
			"stateMutability": "nonpayable"
		},
		{
			"type": "function",
			"name": "requestRandomWords",
			"inputs": [],
			"outputs": [
				{
					"name": "requestId",
					"type": "uint256",
					"internalType": "uint256"
				}
			],
			"stateMutability": "payable"
		},
		{
			"type": "function",
			"name": "s_vrfCoordinator",
			"inputs": [],
			"outputs": [
				{
					"name": "",
					"type": "address",
					"internalType": "contract IVRFCoordinatorV2Plus"
				}
			],
			"stateMutability": "view"
		},
		{
			"type": "function",
			"name": "setCallbackGasLimit",
			"inputs": [
				{
					"name": "_callbackGasLimit",
					"type": "uint32",
					"internalType": "uint32"
				}
			],
			"outputs": [],
			"stateMutability": "nonpayable"
		},
		{
			"type": "function",
			"name": "setCoordinator",
			"inputs": [
				{
					"name": "_vrfCoordinator",
					"type": "address",
					"internalType": "address"
				}
			],
			"outputs": [],
			"stateMutability": "nonpayable"
		},
		{
			"type": "function",
			"name": "setMinRollPrice",
			"inputs": [
				{
					"name": "_minRollPrice",
					"type": "uint256",
					"internalType": "uint256"
				}
			],
			"outputs": [],
			"stateMutability": "nonpayable"
		},
		{
			"type": "function",
			"name": "setNativePayment",
			"inputs": [
				{
					"name": "_nativePayment",
					"type": "bool",
					"internalType": "bool"
				}
			],
			"outputs": [],
			"stateMutability": "nonpayable"
		},
		{
			"type": "function",
			"name": "transferOwnership",
			"inputs": [
				{
					"name": "to",
					"type": "address",
					"internalType": "address"
				}
			],
			"outputs": [],
			"stateMutability": "nonpayable"
		},
		{
			"type": "function",
			"name": "withdraw",
			"inputs": [],
			"outputs": [],
			"stateMutability": "nonpayable"
		},
		{
			"type": "event",
			"name": "CoordinatorSet",
			"inputs": [
				{
					"name": "vrfCoordinator",
					"type": "address",
					"indexed": false,
					"internalType": "address"
				}
			],
			"anonymous": false
		},
		{
			"type": "event",
			"name": "OwnershipTransferRequested",
			"inputs": [
				{
					"name": "from",
					"type": "address",
					"indexed": true,
					"internalType": "address"
				},
				{
					"name": "to",
					"type": "address",
					"indexed": true,
					"internalType": "address"
				}
			],
			"anonymous": false
		},
		{
			"type": "event",
			"name": "OwnershipTransferred",
			"inputs": [
				{
					"name": "from",
					"type": "address",
					"indexed": true,
					"internalType": "address"
				},
				{
					"name": "to",
					"type": "address",
					"indexed": true,
					"internalType": "address"
				}
			],
			"anonymous": false
		},
		{
			"type": "event",
			"name": "RequestFulfilled",
			"inputs": [
				{
					"name": "requester",
					"type": "address",
					"indexed": true,
					"internalType": "address"
				},
				{
					"name": "requestId",
					"type": "uint256",
					"indexed": true,
					"internalType": "uint256"
				},
				{
					"name": "dice",
					"type": "uint8",
					"indexed": true,
					"internalType": "uint8"
				},
				{
					"name": "randomWord",
					"type": "uint256",
					"indexed": false,
					"internalType": "uint256"
				},
				{
					"name": "paid",
					"type": "uint256",
					"indexed": false,
					"internalType": "uint256"
				},
				{
					"name": "timestamp",
					"type": "uint256",
					"indexed": false,
					"internalType": "uint256"
				}
			],
			"anonymous": false
		},
		{
			"type": "event",
			"name": "RequestSent",
			"inputs": [
				{
					"name": "requester",
					"type": "address",
					"indexed": true,
					"internalType": "address"
				},
				{
					"name": "requestId",
					"type": "uint256",
					"indexed": true,
					"internalType": "uint256"
				},
				{
					"name": "paid",
					"type": "uint256",
					"indexed": false,
					"internalType": "uint256"
				},
				{
					"name": "timestamp",
					"type": "uint256",
					"indexed": false,
					"internalType": "uint256"
				}
			],
			"anonymous": false
		},
		{
			"type": "event",
			"name": "TravelVRFV2Plus__RequesterDeleted",
			"inputs": [
				{
					"name": "_requester",
					"type": "address",
					"indexed": false,
					"internalType": "address"
				}
			],
			"anonymous": false
		},
		{
			"type": "event",
			"name": "TravelVRFV2Plus__Withdraw",
			"inputs": [
				{
					"name": "_requester",
					"type": "address",
					"indexed": false,
					"internalType": "address"
				},
				{
					"name": "_amount",
					"type": "uint256",
					"indexed": false,
					"internalType": "uint256"
				}
			],
			"anonymous": false
		},
		{
			"type": "error",
			"name": "OnlyCoordinatorCanFulfill",
			"inputs": [
				{
					"name": "have",
					"type": "address",
					"internalType": "address"
				},
				{
					"name": "want",
					"type": "address",
					"internalType": "address"
				}
			]
		},
		{
			"type": "error",
			"name": "OnlyOwnerOrCoordinator",
			"inputs": [
				{
					"name": "have",
					"type": "address",
					"internalType": "address"
				},
				{
					"name": "owner",
					"type": "address",
					"internalType": "address"
				},
				{
					"name": "coordinator",
					"type": "address",
					"internalType": "address"
				}
			]
		},
		{
			"type": "error",
			"name": "TravelVRFV2Plus__InsufficientFunds",
			"inputs": [
				{
					"name": "sender",
					"type": "address",
					"internalType": "address"
				},
				{
					"name": "paid",
					"type": "uint256",
					"internalType": "uint256"
				}
			]
		},
		{
			"type": "error",
			"name": "TravelVRFV2Plus__NoRequestFound",
			"inputs": [
				{
					"name": "requestId",
					"type": "uint256",
					"internalType": "uint256"
				}
			]
		},
		{
			"type": "error",
			"name": "TravelVRFV2Plus__OnlyOwnerOrCollateralOwner",
			"inputs": [
				{
					"name": "_opeartor",
					"type": "address",
					"internalType": "address"
				}
			]
		},
		{
			"type": "error",
			"name": "TravelVRFV2Plus__RequestHasNotBeenFulfilled",
			"inputs": [
				{
					"name": "_requester",
					"type": "address",
					"internalType": "address"
				},
				{
					"name": "_requestId",
					"type": "uint256",
					"internalType": "uint256"
				}
			]
		},
		{
			"type": "error",
			"name": "TravelVRFV2Plus__RequesterNotFoundById",
			"inputs": [
				{
					"name": "_requestId",
					"type": "uint256",
					"internalType": "uint256"
				}
			]
		},
		{
			"type": "error",
			"name": "TravelVRFV2Plus__WithdrawFailed",
			"inputs": [
				{
					"name": "amount",
					"type": "uint256",
					"internalType": "uint256"
				}
			]
		},
		{
			"type": "error",
			"name": "ZeroAddress",
			"inputs": []
		}
	],
	"bytecode": {
		"object": "0x60e03461015057601f61183438819003918201601f19168301916001600160401b03831184841017610155578084926080946040528339810103126101505780516020820151916001600160a01b038316919082840361015057606060408201519101519384151580950361015057331561010b57600080546001600160a01b0319908116331790915584156100f9578490600254161760025560065492662386f26fc1000060075560805260a05260c052610c3560a51b9260ff60c01b9060c01b169060018060c81b0319161717176006556040516116c8908161016c823960805181610567015260a05181505060c051816105410152f35b60405163d92e233d60e01b8152600490fd5b60405162461bcd60e51b815260206004820152601860248201527f43616e6e6f7420736574206f776e657220746f207a65726f00000000000000006044820152606490fd5b600080fd5b634e487b7160e01b600052604160045260246000fdfe608080604052600436101561001357600080fd5b60003560e01c9081627d94f6146113c7575080630c6dcd311461131c5780631fe543e3146110e25780632d4861511461108a5780633109c19d146110185780633ccfd60b14610ef15780634761b6fb14610e2d57806379ba509714610d415780637f95e4b314610d1b5780638da5cb5b14610ce75780638ea9811714610bc957806399c6679d14610b4d5780639eccacf614610b19578063a4eb718c14610a6c578063a7fd9f8414610a4e578063ccdbe6a6146109d9578063d8a4676f146108d6578063de8be8e7146108af578063e0c862891461049f578063e9a21bcd146101ff5763f2fde38b1461010557600080fd5b346101fa5760206003193601126101fa5760043573ffffffffffffffffffffffffffffffffffffffff8082168092036101fa57610140611613565b33821461019c57817fffffffffffffffffffffffff00000000000000000000000000000000000000006001541617600155600054167fed8889f560326eb138920d842192f0eb3dd22b4f139c87a2c57538e05bae1278600080a3005b60646040517f08c379a000000000000000000000000000000000000000000000000000000000815260206004820152601760248201527f43616e6e6f74207472616e7366657220746f2073656c660000000000000000006044820152fd5b600080fd5b346101fa5760206003193601126101fa5760043573ffffffffffffffffffffffffffffffffffffffff806000541633141580610486575b61045657816000526004602052604060002060ff600282015416158061043c575b6103de575416600052600560205260406000208160005b8254808210156103d557829061028483866115fb565b929054600393841b1c1461029c57505060010161026e565b909392507fffffffffffffffffffffffffffffffffffffffffffffffffffffffffffffffff918282019182116103a6576102e96102dc61031f93866115fb565b905490871b1c91856115fb565b9091907fffffffffffffffffffffffffffffffffffffffffffffffffffffffffffffffff83549160031b92831b921b1916179055565b815480156103775781019261033484846115fb565b81939154921b1b19169055555b6000526004602052610375604060002060056000918281558260018201558260028201558260038201558260048201550155565b005b7f4e487b7100000000000000000000000000000000000000000000000000000000600052603160045260246000fd5b7f4e487b7100000000000000000000000000000000000000000000000000000000600052601160045260246000fd5b50505050610341565b54166104386040519283927fa798de3e000000000000000000000000000000000000000000000000000000008452600484016020909392919373ffffffffffffffffffffffffffffffffffffffff60408201951681520152565b0390fd5b5060058101546201518081018091116103a6574210610257565b60246040517feab193eb000000000000000000000000000000000000000000000000000000008152336004820152fd5b5033600052600360205260ff6040600020541615610236565b60006003193601126101fa576007543410610878576006546040519067ffffffffffffffff60208301818111848210176107f25760405260ff8260c01c1615158352604051927f92fd1338000000000000000000000000000000000000000000000000000000006020850152511515602484015260248352826060810110906060840111176107f257816060610100930160405261053f60608201611562565b7f000000000000000000000000000000000000000000000000000000000000000060608201527f00000000000000000000000000000000000000000000000000000000000000006080820152600360a082015263ffffffff8260a01c1660c0820152600160e082015280838101526040519283917f9b1c385e00000000000000000000000000000000000000000000000000000000835260206004840152606081015160248401526080810151604484015261ffff60a082015116606484015263ffffffff60c082015116608484015263ffffffff60e08201511660a4840152015160c060c48301528051908160e484015260005b82811061085f5750509181600073ffffffffffffffffffffffffffffffffffffffff602095837fffffffffffffffffffffffffffffffffffffffffffffffffffffffffffffffe0601f610104938685828601015201168101030193165af190811561085357600091610821575b506040516106ae81611562565b338152600560208201348152604083016000815260608401906000825260808501916000835260a086019342855287600052600460205273ffffffffffffffffffffffffffffffffffffffff60406000209751167fffffffffffffffffffffffff00000000000000000000000000000000000000008854161787555160018701556002860191511515917fffffffffffffffffffffffffffffffffffffffffffffffffffffffffffffff009260ff84835416911617905551600386015560ff600486019251169082541617905551910155336000526005602052604060002090815491680100000000000000008310156107f257816102e9846107b89360016020970181556115fb565b8060405134815242848201527f963eddb7b4e1dcf49cf95fa5042927a15e446cf720c60bee1cef3f7168a88e8d60403392a3604051908152f35b7f4e487b7100000000000000000000000000000000000000000000000000000000600052604160045260246000fd5b90506020813d60201161084b575b8161083c6020938361157e565b810103126101fa5751816106a1565b3d915061082f565b6040513d6000823e3d90fd5b6020828201810151610104888401015286945001610634565b6040517f5ea05ea4000000000000000000000000000000000000000000000000000000008152336004820152346024820152604490fd5b346101fa5760006003193601126101fa57602063ffffffff60065460a01c16604051908152f35b346101fa5760206003193601126101fa576004358060005260046020526040600020906040519061090682611562565b73ffffffffffffffffffffffffffffffffffffffff92838154168352600181015490602084019082825260ff6002820154169460408101951515865260038201549460608201958652600560ff600485015416936080840194855201549460a08301958652156109a8575060c09660ff9151169551151594519151169151925193604051958652602086015260408501526060840152608083015260a0820152f35b602490604051907fb943b8c80000000000000000000000000000000000000000000000000000000082526004820152fd5b346101fa5760206003193601126101fa5760043573ffffffffffffffffffffffffffffffffffffffff81168091036101fa57610a13611613565b6000526003602052604060002060017fffffffffffffffffffffffffffffffffffffffffffffffffffffffffffffff00825416179055600080f35b346101fa5760006003193601126101fa576020600754604051908152f35b346101fa5760206003193601126101fa5760043563ffffffff811681036101fa5773ffffffffffffffffffffffffffffffffffffffff6000541633141580610b00575b610456577fffffffffffffffff00000000ffffffffffffffffffffffffffffffffffffffff77ffffffff00000000000000000000000000000000000000006006549260a01b16911617600655600080f35b5033600052600360205260ff6040600020541615610aaf565b346101fa5760006003193601126101fa57602073ffffffffffffffffffffffffffffffffffffffff60025416604051908152f35b346101fa5760206003193601126101fa5760043580600052600460205273ffffffffffffffffffffffffffffffffffffffff60406000205416908115610b9857602082604051908152f35b602490604051907fd4d513030000000000000000000000000000000000000000000000000000000082526004820152fd5b346101fa5760206003193601126101fa5760043573ffffffffffffffffffffffffffffffffffffffff8082168092036101fa578060005416908133141580610cd9575b610c9857828015610c6e576020817fd1a6a14209a385a964d036e404cb5cfb71f4000cdb03c9366292430787261be6927fffffffffffffffffffffffff00000000000000000000000000000000000000006002541617600255604051908152a1005b60046040517fd92e233d000000000000000000000000000000000000000000000000000000008152fd5b6064925060025416604051917f061db9c100000000000000000000000000000000000000000000000000000000835233600484015260248301526044820152fd5b508060025416331415610c0c565b346101fa5760006003193601126101fa57602073ffffffffffffffffffffffffffffffffffffffff60005416604051908152f35b346101fa5760006003193601126101fa57602060ff60065460c01c166040519015158152f35b346101fa5760006003193601126101fa5760015473ffffffffffffffffffffffffffffffffffffffff8082163303610dcf57600054917fffffffffffffffffffffffff0000000000000000000000000000000000000000903382851617600055166001553391167f8be0079c531659141344cd1fd0a4f28419497f9722a3daafe3b4186f6b6457e0600080a3005b60646040517f08c379a000000000000000000000000000000000000000000000000000000000815260206004820152601660248201527f4d7573742062652070726f706f736564206f776e6572000000000000000000006044820152fd5b346101fa576020806003193601126101fa5760043573ffffffffffffffffffffffffffffffffffffffff81168091036101fa5760005260058152604060002060405190818382549182815201908192600052846000209060005b86828210610edd578686610e9d8288038361157e565b604051928392818401908285525180915260408401929160005b828110610ec657505050500390f35b835185528695509381019392810192600101610eb7565b835485529093019260019283019201610e87565b346101fa5760006003193601126101fa5773ffffffffffffffffffffffffffffffffffffffff6000541633141580610fff575b610456574780610f3057005b600080808084335af13d15610ffa573d67ffffffffffffffff81116107f25760405190610f8560207fffffffffffffffffffffffffffffffffffffffffffffffffffffffffffffffe0601f840116018361157e565b8152600060203d92013e5b15610fc9576040805133815260208101929092527f78862c49786a171af67ab333a1c2659f2c4fde9822e725b4f13480f9bdbb145991a1005b602490604051907f4d146f1c0000000000000000000000000000000000000000000000000000000082526004820152fd5b610f90565b5033600052600360205260ff6040600020541615610f24565b346101fa5760206003193601126101fa5760043573ffffffffffffffffffffffffffffffffffffffff81168091036101fa57611052611613565b600052600360205260406000207fffffffffffffffffffffffffffffffffffffffffffffffffffffffffffffff008154169055600080f35b346101fa5760206003193601126101fa5773ffffffffffffffffffffffffffffffffffffffff60005416331415806110c9575b61045657600435600755005b5033600052600360205260ff60406000205416156110bd565b346101fa5760406003193601126101fa57602460043567ffffffffffffffff82358181116101fa57366023820112156101fa5780600401359182116112ee578160051b90602091604051936111398483018661157e565b84528583850191830101913683116101fa5786849101915b8383106112de575050505073ffffffffffffffffffffffffffffffffffffffff80600254168033036112a85750836000526004825260406000209060018201549182156112785760028101967fffffffffffffffffffffffffffffffffffffffffffffffffffffffffffffff00976001898254161790556111d1866115bf565b516003830155600160ff60066111e6896115bf565b510616019060ff821161124b57507fd15cbba5c275467e94024e709068d4570e0e4080588ff23afce640fbaf72e3239492826112379260ff600460609896019116809b8254161790555416956115bf565b5191604051928352820152426040820152a4005b7f4e487b710000000000000000000000000000000000000000000000000000000060005260116004526000fd5b8686604051907fb943b8c80000000000000000000000000000000000000000000000000000000082526004820152fd5b85604491604051917f1cf993f4000000000000000000000000000000000000000000000000000000008352336004840152820152fd5b8235815291810191849101611151565b837f4e487b710000000000000000000000000000000000000000000000000000000060005260416004526000fd5b346101fa5760206003193601126101fa576004358015158091036101fa5773ffffffffffffffffffffffffffffffffffffffff60005416331415806113ae575b610456577fffffffffffffff00ffffffffffffffffffffffffffffffffffffffffffffffff78ff0000000000000000000000000000000000000000000000006006549260c01b16911617600655600080f35b5033600052600360205260ff604060002054161561135c565b346101fa57602090816003193601126101fa576004359073ffffffffffffffffffffffffffffffffffffffff8083168093036101fa57600054163314158061154a575b61151c5750806000526005808352604060002090604051808386829554938481520190600052866000209260005b888282106115065750505061144f9250038361157e565b60005b825181101561149f578085600192841b8501015160005260048652611499604060002060056000918281558260018201558260028201558260038201558260048201550155565b01611452565b5050507f0c8f3f40340f4c3307ffda94345b1bfa1c384c2bff61128d0279581e32f876a582604051838152a16000526005815260406000209081549160008155826114e657005b600052600020908101905b8181106114fa57005b600081556001016114f1565b8554845260019586019588955093019201611438565b807feab193eb0000000000000000000000000000000000000000000000000000000060249252336004820152fd5b50336000526003835260ff604060002054161561140a565b60c0810190811067ffffffffffffffff8211176107f257604052565b90601f7fffffffffffffffffffffffffffffffffffffffffffffffffffffffffffffffe0910116810190811067ffffffffffffffff8211176107f257604052565b8051156115cc5760200190565b7f4e487b7100000000000000000000000000000000000000000000000000000000600052603260045260246000fd5b80548210156115cc5760005260206000200190600090565b73ffffffffffffffffffffffffffffffffffffffff60005416330361163457565b60646040517f08c379a000000000000000000000000000000000000000000000000000000000815260206004820152601660248201527f4f6e6c792063616c6c61626c65206279206f776e6572000000000000000000006044820152fdfea264697066735822122088bb2011c06d2f34d553611d3da4c5834e420f6079967728f87397e7ac0e341664736f6c63430008190033",
		"linkReferences": {}
	},
	"methodIdentifiers": {
		"acceptOwnership()": "79ba5097",
		"addCollaborator(address)": "ccdbe6a6",
		"deleteRequest(address)": "007d94f6",
		"deleteRequest(uint256)": "e9a21bcd",
		"getCallbackGasLimit()": "de8be8e7",
		"getMinRollPrice()": "a7fd9f84",
		"getNativePayment()": "7f95e4b3",
		"getRequestIds(address)": "4761b6fb",
		"getRequestStatus(uint256)": "d8a4676f",
		"getRequester(uint256)": "99c6679d",
		"owner()": "8da5cb5b",
		"rawFulfillRandomWords(uint256,uint256[])": "1fe543e3",
		"removeCollaborator(address)": "3109c19d",
		"requestRandomWords()": "e0c86289",
		"s_vrfCoordinator()": "9eccacf6",
		"setCallbackGasLimit(uint32)": "a4eb718c",
		"setCoordinator(address)": "8ea98117",
		"setMinRollPrice(uint256)": "2d486151",
		"setNativePayment(bool)": "0c6dcd31",
		"transferOwnership(address)": "f2fde38b",
		"withdraw()": "3ccfd60b"
	},
	"id": 34
}